{
  "contractName": "Trade",
  "abi": [
    {
      "inputs": [],
      "stateMutability": "nonpayable",
      "type": "constructor"
    },
    {
      "anonymous": false,
      "inputs": [
        {
          "indexed": false,
          "internalType": "address",
          "name": "sender",
          "type": "address"
        },
        {
          "indexed": false,
          "internalType": "uint256",
          "name": "c0",
          "type": "uint256"
        },
        {
          "indexed": false,
          "internalType": "uint256",
          "name": "c1",
          "type": "uint256"
        },
        {
          "indexed": false,
          "internalType": "uint256[]",
          "name": "c2",
          "type": "uint256[]"
        }
      ],
      "name": "orderLog",
      "type": "event"
    },
    {
      "inputs": [],
      "name": "owner",
      "outputs": [
        {
          "internalType": "address",
          "name": "",
          "type": "address"
        }
      ],
      "stateMutability": "view",
      "type": "function"
    },
    {
      "inputs": [
        {
          "internalType": "uint256[5]",
          "name": "inputs",
          "type": "uint256[5]"
        }
      ],
      "name": "registContent",
      "outputs": [
        {
          "internalType": "bool",
          "name": "",
          "type": "bool"
        }
      ],
      "stateMutability": "nonpayable",
      "type": "function"
    },
    {
      "inputs": [
        {
          "internalType": "uint256[17]",
          "name": "inputs",
          "type": "uint256[17]"
        }
      ],
      "name": "orderContent",
      "outputs": [
        {
          "internalType": "bool",
          "name": "",
          "type": "bool"
        }
      ],
      "stateMutability": "nonpayable",
      "type": "function"
    },
    {
      "inputs": [
        {
          "internalType": "uint256[6]",
          "name": "inputs",
          "type": "uint256[6]"
        }
      ],
      "name": "acceptOrder",
      "outputs": [
        {
          "internalType": "bool",
          "name": "",
          "type": "bool"
        }
      ],
      "stateMutability": "nonpayable",
      "type": "function"
    },
    {
      "inputs": [
        {
          "internalType": "bytes32",
          "name": "orderNumber",
          "type": "bytes32"
        }
      ],
      "name": "checkCmValidation",
      "outputs": [
        {
          "internalType": "bool",
          "name": "",
          "type": "bool"
        },
        {
          "internalType": "bool",
          "name": "",
          "type": "bool"
        }
      ],
      "stateMutability": "view",
      "type": "function"
    }
  ],
  "bytecode": "0x608060405234801561001057600080fd5b50336000806101000a81548173ffffffffffffffffffffffffffffffffffffffff021916908373ffffffffffffffffffffffffffffffffffffffff160217905550611603806100606000396000f3fe608060405234801561001057600080fd5b50600436106100575760003560e01c80630e39b06f1461005c57806310da88881461008d5780632877ad14146100bd5780634b9c1da1146100ed5780638da5cb5b1461011d575b600080fd5b61007660048036038101906100719190610eb3565b61013b565b604051610084929190611105565b60405180910390f35b6100a760048036038101906100a29190610e61565b6101b5565b6040516100b491906110ea565b60405180910390f35b6100d760048036038101906100d29190610e8a565b610368565b6040516100e491906110ea565b60405180910390f35b61010760048036038101906101029190610e37565b6105c6565b60405161011491906110ea565b60405180910390f35b610125610b9b565b6040516101329190611083565b60405180910390f35b600080600360006002600086815260200190815260200160002060010154815260200190815260200160002060009054906101000a900460ff16600360006002600087815260200190815260200160002060020154815260200190815260200160002060009054906101000a900460ff1691509150915091565b6000600580146101fa576040517f08c379a00000000000000000000000000000000000000000000000000000000081526004016101f1906111ce565b60405180910390fd5b6001600083600360058110610238577f4e487b7100000000000000000000000000000000000000000000000000000000600052603260045260246000fd5b6020020151815260200190815260200160002060009054906101000a900460ff1615610299576040517f08c379a0000000000000000000000000000000000000000000000000000000008152600401610290906111ae565b60405180910390fd5b6001806000846003600581106102d8577f4e487b7100000000000000000000000000000000000000000000000000000000600052603260045260246000fd5b6020020151815260200190815260200160002060006101000a81548160ff0219169083151502179055506001600083600360058110610340577f4e487b7100000000000000000000000000000000000000000000000000000000600052603260045260246000fd5b6020020151815260200190815260200160002060009054906101000a900460ff169050919050565b6000600680146103ad576040517f08c379a00000000000000000000000000000000000000000000000000000000081526004016103a4906111ee565b60405180910390fd5b60036000836001600681106103eb577f4e487b7100000000000000000000000000000000000000000000000000000000600052603260045260246000fd5b6020020151815260200190815260200160002060009054906101000a900460ff1661044b576040517f08c379a00000000000000000000000000000000000000000000000000000000081526004016104429061112e565b60405180910390fd5b6003600083600260068110610489577f4e487b7100000000000000000000000000000000000000000000000000000000600052603260045260246000fd5b6020020151815260200190815260200160002060009054906101000a900460ff166104e9576040517f08c379a00000000000000000000000000000000000000000000000000000000081526004016104e09061118e565b60405180910390fd5b60006003600084600160068110610529577f4e487b7100000000000000000000000000000000000000000000000000000000600052603260045260246000fd5b6020020151815260200190815260200160002060006101000a81548160ff02191690831515021790555060006003600084600260068110610593577f4e487b7100000000000000000000000000000000000000000000000000000000600052603260045260246000fd5b6020020151815260200190815260200160002060006101000a81548160ff02191690831515021790555060019050919050565b60006011801461060b576040517f08c379a0000000000000000000000000000000000000000000000000000000008152600401610602906111ce565b60405180910390fd5b6003600083600360118110610649577f4e487b7100000000000000000000000000000000000000000000000000000000600052603260045260246000fd5b6020020151815260200190815260200160002060009054906101000a900460ff16156106aa576040517f08c379a00000000000000000000000000000000000000000000000000000000081526004016106a19061114e565b60405180910390fd5b60036000836004601181106106e8577f4e487b7100000000000000000000000000000000000000000000000000000000600052603260045260246000fd5b6020020151815260200190815260200160002060009054906101000a900460ff1615610749576040517f08c379a00000000000000000000000000000000000000000000000000000000081526004016107409061116e565b60405180910390fd5b60006107d783600360118110610788577f4e487b7100000000000000000000000000000000000000000000000000000000600052603260045260246000fd5b602002015160001b846004601181106107ca577f4e487b7100000000000000000000000000000000000000000000000000000000600052603260045260246000fd5b602002015160001b610bbf565b9050336002600083815260200190815260200160002060000160006101000a81548173ffffffffffffffffffffffffffffffffffffffff021916908373ffffffffffffffffffffffffffffffffffffffff1602179055506001600360008560036011811061086e577f4e487b7100000000000000000000000000000000000000000000000000000000600052603260045260246000fd5b6020020151815260200190815260200160002060006101000a81548160ff021916908315150217905550600160036000856004601181106108d8577f4e487b7100000000000000000000000000000000000000000000000000000000600052603260045260246000fd5b6020020151815260200190815260200160002060006101000a81548160ff0219169083151502179055508260036011811061093c577f4e487b7100000000000000000000000000000000000000000000000000000000600052603260045260246000fd5b6020020151600260008381526020019081526020016000206001018190555082600460118110610995577f4e487b7100000000000000000000000000000000000000000000000000000000600052603260045260246000fd5b602002015160026000838152602001908152602001600020600201819055506000600667ffffffffffffffff8111156109f7577f4e487b7100000000000000000000000000000000000000000000000000000000600052604160045260246000fd5b604051908082528060200260200182016040528015610a255781602001602082028036833780820191505090505b50905060005b6006811015610ad65784600b82610a4291906112ef565b60118110610a79577f4e487b7100000000000000000000000000000000000000000000000000000000600052603260045260246000fd5b6020020151828281518110610ab7577f4e487b7100000000000000000000000000000000000000000000000000000000600052603260045260246000fd5b6020026020010181815250508080610ace906113c8565b915050610a2b565b507f33d5f61c636c478df8a94d3ddb47ea436d2ecacec313fb3052b3d1c8a455e3253385600160118110610b33577f4e487b7100000000000000000000000000000000000000000000000000000000600052603260045260246000fd5b602002015186600260118110610b72577f4e487b7100000000000000000000000000000000000000000000000000000000600052603260045260246000fd5b602002015184604051610b88949392919061109e565b60405180910390a1600192505050919050565b60008054906101000a900473ffffffffffffffffffffffffffffffffffffffff1681565b60007f30644e72e131a029b85045b68181585d2833e84879b9709143e1f593f000000180838508818182098282848386858609090991507faed26d6a3f5e0ea662411ddfcde3527479de9cee7a56c656ff5f61df13a3940160005260005b605a811215610c565760206000208060005284878683870808935084848509925084848685888788090909935050600181019050610c1d565b5082858308915082858488850808935050505092915050565b6000610c82610c7d84611233565b61120e565b90508082856020860282011115610c9857600080fd5b60005b85811015610cc85781610cae8882610e22565b845260208401935060208301925050600181019050610c9b565b5050509392505050565b6000610ce5610ce084611259565b61120e565b90508082856020860282011115610cfb57600080fd5b60005b85811015610d2b5781610d118882610e22565b845260208401935060208301925050600181019050610cfe565b5050509392505050565b6000610d48610d438461127f565b61120e565b90508082856020860282011115610d5e57600080fd5b60005b85811015610d8e5781610d748882610e22565b845260208401935060208301925050600181019050610d61565b5050509392505050565b600082601f830112610da957600080fd5b6011610db6848285610c6f565b91505092915050565b600082601f830112610dd057600080fd5b6005610ddd848285610cd2565b91505092915050565b600082601f830112610df757600080fd5b6006610e04848285610d35565b91505092915050565b600081359050610e1c8161159f565b92915050565b600081359050610e31816115b6565b92915050565b60006102208284031215610e4a57600080fd5b6000610e5884828501610d98565b91505092915050565b600060a08284031215610e7357600080fd5b6000610e8184828501610dbf565b91505092915050565b600060c08284031215610e9c57600080fd5b6000610eaa84828501610de6565b91505092915050565b600060208284031215610ec557600080fd5b6000610ed384828501610e0d565b91505092915050565b6000610ee88383611065565b60208301905092915050565b610efd81611345565b82525050565b6000610f0e826112b5565b610f1881856112cd565b9350610f23836112a5565b8060005b83811015610f54578151610f3b8882610edc565b9750610f46836112c0565b925050600181019050610f27565b5085935050505092915050565b610f6a81611357565b82525050565b6000610f7d600c836112de565b9150610f8882611480565b602082019050919050565b6000610fa06014836112de565b9150610fab826114a9565b602082019050919050565b6000610fc36014836112de565b9150610fce826114d2565b602082019050919050565b6000610fe6600c836112de565b9150610ff1826114fb565b602082019050919050565b60006110096017836112de565b915061101482611524565b602082019050919050565b600061102c6014836112de565b91506110378261154d565b602082019050919050565b600061104f6015836112de565b915061105a82611576565b602082019050919050565b61106e8161138d565b82525050565b61107d8161138d565b82525050565b60006020820190506110986000830184610ef4565b92915050565b60006080820190506110b36000830187610ef4565b6110c06020830186611074565b6110cd6040830185611074565b81810360608301526110df8184610f03565b905095945050505050565b60006020820190506110ff6000830184610f61565b92915050565b600060408201905061111a6000830185610f61565b6111276020830184610f61565b9392505050565b6000602082019050818103600083015261114781610f70565b9050919050565b6000602082019050818103600083015261116781610f93565b9050919050565b6000602082019050818103600083015261118781610fb6565b9050919050565b600060208201905081810360008301526111a781610fd9565b9050919050565b600060208201905081810360008301526111c781610ffc565b9050919050565b600060208201905081810360008301526111e78161101f565b9050919050565b6000602082019050818103600083015261120781611042565b9050919050565b6000611218611229565b90506112248282611397565b919050565b6000604051905090565b600067ffffffffffffffff82111561124e5761124d611440565b5b602082029050919050565b600067ffffffffffffffff82111561127457611273611440565b5b602082029050919050565b600067ffffffffffffffff82111561129a57611299611440565b5b602082029050919050565b6000819050602082019050919050565b600081519050919050565b6000602082019050919050565b600082825260208201905092915050565b600082825260208201905092915050565b60006112fa8261138d565b91506113058361138d565b9250827fffffffffffffffffffffffffffffffffffffffffffffffffffffffffffffffff0382111561133a57611339611411565b5b828201905092915050565b60006113508261136d565b9050919050565b60008115159050919050565b6000819050919050565b600073ffffffffffffffffffffffffffffffffffffffff82169050919050565b6000819050919050565b6113a08261146f565b810181811067ffffffffffffffff821117156113bf576113be611440565b5b80604052505050565b60006113d38261138d565b91507fffffffffffffffffffffffffffffffffffffffffffffffffffffffffffffffff82141561140657611405611411565b5b600182019050919050565b7f4e487b7100000000000000000000000000000000000000000000000000000000600052601160045260246000fd5b7f4e487b7100000000000000000000000000000000000000000000000000000000600052604160045260246000fd5b6000601f19601f8301169050919050565b7f636d30206e6f2065786973740000000000000000000000000000000000000000600082015250565b7f616c726561647920657869737420636d5f6f776e000000000000000000000000600082015250565b7f616c726561647920657869737420636d5f64656c000000000000000000000000600082015250565b7f636d31206e6f2065786973740000000000000000000000000000000000000000600082015250565b7f616c7265616479207265676973746572656420685f6374000000000000000000600082015250565b7f696e76616c696420496e707574206c656e677468000000000000000000000000600082015250565b7f696e76616c696420496e70757473206c656e6774680000000000000000000000600082015250565b6115a881611363565b81146115b357600080fd5b50565b6115bf8161138d565b81146115ca57600080fd5b5056fea26469706673582212202957d4783f0b0413527606efc510ff03645070b5bb8f71addd840499f0cd212864736f6c63430008020033",
  "immutableReferences": {},
  "source": "// SPDX-License-Identifier: LGPL-3.0+\npragma solidity ^0.8.2;\n\nimport \"./Groth16AltBN128.sol\";\nimport \"./MiMC7.sol\";\n\ncontract Trade {\n\n    struct Order {\n        address orderer;\n        uint256 cm_pear;\n        uint256 cm_del;\n    }\n\n    event orderLog(address sender,uint256 c0,uint256 c1,uint256[] c2);\n\n    address public owner;\n\n    // h_ct list\n    mapping(uint256 => bool) private h_ct_list;\n    // order number -> order\n    mapping(bytes32 => Order) orderList;\n    // waitting for accept\n    mapping(uint256 => bool) waitTradeList;\n    \n    //  SNARK vk\n    uint256[] private registContent_vk;\n    uint256[] private orderContent_vk;\n    uint256[] private acceptOrder_vk;\n\n    // registData SNARK Proof verify input num\n    uint256 private constant REGISTDATA_NUM_INPUTS = 5;\n    // GenTrade SNARK Proof verify input num\n    uint256 private constant ORDER_NUM_INPUTS = 17;\n    // AcceptTrade SNARK Proof verify input num\n    uint256 private constant ACCEPT_NUM_INPUTS = 6;\n\n    constructor(\n//        uint256[] memory _registContent_vk,\n//        uint256[] memory _orderContent_vk,\n//        uint256[] memory _acceptOrder_vk\n    ){\n        owner = msg.sender;\n        //registContent_vk = _registContent_vk;\n        //orderContent_vk  = _orderContent_vk;\n        //acceptOrder_vk = _acceptOrder_vk;\n    }\n\n    //function registContent( uint256[] memory proof, uint256[REGISTDATA_NUM_INPUTS] memory inputs) \n    function registContent( uint256[REGISTDATA_NUM_INPUTS] memory inputs) \n        public  \n        returns(bool)\n    {   \n        // check input length\n        require( inputs.length == REGISTDATA_NUM_INPUTS, \"invalid Input length\");\n        \n        // check hct\n        require( !h_ct_list[inputs[3]], \"already registered h_ct\");\n\n        // uint256[] memory input_values = new uint256[](REGISTDATA_NUM_INPUTS);\n        // for (uint256 i = 0 ; i < REGISTDATA_NUM_INPUTS; i++) {\n        //     input_values[i] = inputs[i];\n        // }\n        // require( Groth16AltBN128._verify(registContent_vk, proof, input_values), \"invalid proof\");\n\n        h_ct_list[inputs[3]] = true;\n        return h_ct_list[inputs[3]];\n    }\n    \n\n    //function orderContent( uint256[] memory proof, uint256[ORDER_NUM_INPUTS] memory inputs)\n    function orderContent( uint256[ORDER_NUM_INPUTS] memory inputs)\n        public\n        returns(bool)\n    {\n\n        require( inputs.length == ORDER_NUM_INPUTS, \"invalid Input length\");\n\n        require( !waitTradeList[inputs[3]], \"already exist cm_own\");\n        require( !waitTradeList[inputs[4]], \"already exist cm_del\");\n\n        // uint256[] memory input_values = new uint256[](ORDER_NUM_INPUTS);\n        // for (uint256 i = 0 ; i < ORDER_NUM_INPUTS; i++) {\n        //     input_values[i] = inputs[i];\n        // }\n        // require( Groth16AltBN128._verify(orderContent_vk, proof, input_values), \"invalid proof\");\n        \n        // order number\n        bytes32 orderNumber = MiMC7._hash(bytes32(inputs[3]), bytes32(inputs[4]));\n        orderList[orderNumber].orderer = msg.sender;\n\n        // insert cm to waitTradeList\n        waitTradeList[inputs[3]] = true;\n        waitTradeList[inputs[4]] = true;\n        orderList[orderNumber].cm_pear = inputs[3];\n        orderList[orderNumber].cm_del = inputs[4];\n        \n        // emit log\n        uint256[] memory c2 = new uint256[](6);\n        for (uint256 i=0; i<6; i++){\n            c2[i] = inputs[i+11];\n        } \n\n        emit orderLog(msg.sender,inputs[1],inputs[2],c2);\n\n        return true;\n    }\n\n    //function acceptOrder(uint256[] memory proof,uint256[ACCEPT_NUM_INPUTS] memory inputs)\n    function acceptOrder(uint256[ACCEPT_NUM_INPUTS] memory inputs)\n        public\n        returns(bool)\n    {\n        require(inputs.length == ACCEPT_NUM_INPUTS, \"invalid Inputs length\");\n\n        // check cm\n        require(waitTradeList[inputs[1]], \"cm0 no exist\");\n        require(waitTradeList[inputs[2]], \"cm1 no exist\");\n\n        // uint256[] memory input_values = new uint256[](ACCEPT_NUM_INPUTS);\n        // for (uint256 i = 0 ; i < ACCEPT_NUM_INPUTS; i++) {\n        //     input_values[i] = inputs[i];\n        // }\n        // require( Groth16AltBN128._verify(acceptOrder_vk, proof, input_values), \"invalid proof\");\n\n        waitTradeList[inputs[1]] = false;\n        waitTradeList[inputs[2]] = false;\n\n        return true;\n    }\n\n    function checkCmValidation(bytes32 orderNumber)public view returns (bool,bool){\n        return (waitTradeList[orderList[orderNumber].cm_pear], waitTradeList[orderList[orderNumber].cm_del]);\n    }\n}",
  "sourcePath": "/Users/sjw/project/contentTrade/contract/contracts/Trade.sol",
  "compiler": {
    "name": "solc",
    "version": "0.8.2+commit.661d1103.Emscripten.clang"
  },
  "schemaVersion": "3.4.16",
  "updatedAt": "2025-06-23T11:22:52.370Z",
  "devdoc": {
    "kind": "dev",
    "methods": {},
    "version": 1
  },
  "userdoc": {
    "kind": "user",
    "methods": {},
    "version": 1
  }
}