{
  "contractName": "Trade",
  "abi": [
    {
      "inputs": [],
      "stateMutability": "nonpayable",
      "type": "constructor"
    },
    {
      "anonymous": false,
      "inputs": [
        {
          "indexed": false,
          "internalType": "address",
          "name": "sender",
          "type": "address"
        },
        {
          "indexed": false,
          "internalType": "uint256",
          "name": "c0",
          "type": "uint256"
        },
        {
          "indexed": false,
          "internalType": "uint256",
          "name": "c1",
          "type": "uint256"
        },
        {
          "indexed": false,
          "internalType": "uint256[]",
          "name": "c2",
          "type": "uint256[]"
        }
      ],
      "name": "orderLog",
      "type": "event"
    },
    {
      "inputs": [],
      "name": "owner",
      "outputs": [
        {
          "internalType": "address",
          "name": "",
          "type": "address"
        }
      ],
      "stateMutability": "view",
      "type": "function"
    },
    {
      "inputs": [
        {
          "internalType": "uint256[]",
          "name": "proof",
          "type": "uint256[]"
        },
        {
          "internalType": "uint256[5]",
          "name": "inputs",
          "type": "uint256[5]"
        }
      ],
      "name": "registContent",
      "outputs": [
        {
          "internalType": "bool",
          "name": "",
          "type": "bool"
        }
      ],
      "stateMutability": "nonpayable",
      "type": "function"
    },
    {
      "inputs": [
        {
          "internalType": "uint256[]",
          "name": "proof",
          "type": "uint256[]"
        },
        {
          "internalType": "uint256[17]",
          "name": "inputs",
          "type": "uint256[17]"
        }
      ],
      "name": "orderContent",
      "outputs": [
        {
          "internalType": "bool",
          "name": "",
          "type": "bool"
        }
      ],
      "stateMutability": "nonpayable",
      "type": "function"
    },
    {
      "inputs": [
        {
          "internalType": "uint256[]",
          "name": "proof",
          "type": "uint256[]"
        },
        {
          "internalType": "uint256[6]",
          "name": "inputs",
          "type": "uint256[6]"
        }
      ],
      "name": "acceptOrder",
      "outputs": [
        {
          "internalType": "bool",
          "name": "",
          "type": "bool"
        }
      ],
      "stateMutability": "nonpayable",
      "type": "function"
    },
    {
      "inputs": [
        {
          "internalType": "bytes32",
          "name": "orderNumber",
          "type": "bytes32"
        }
      ],
      "name": "checkCmValidation",
      "outputs": [
        {
          "internalType": "bool",
          "name": "",
          "type": "bool"
        },
        {
          "internalType": "bool",
          "name": "",
          "type": "bool"
        }
      ],
      "stateMutability": "view",
      "type": "function"
    }
  ],
  "bytecode": "0x608060405234801561001057600080fd5b50336000806101000a81548173ffffffffffffffffffffffffffffffffffffffff021916908373ffffffffffffffffffffffffffffffffffffffff160217905550611749806100606000396000f3fe608060405234801561001057600080fd5b50600436106100575760003560e01c80630cbcfb1d1461005c5780630e39b06f1461008c5780633e852839146100bd5780638da5cb5b146100ed578063ad807f6f1461010b575b600080fd5b61007660048036038101906100719190610f25565b61013b565b6040516100839190611204565b60405180910390f35b6100a660048036038101906100a19190610fcd565b6102ef565b6040516100b492919061121f565b60405180910390f35b6100d760048036038101906100d29190610ed0565b610369565b6040516100e49190611204565b60405180910390f35b6100f561093f565b604051610102919061119d565b60405180910390f35b61012560048036038101906101209190610f79565b610963565b6040516101329190611204565b60405180910390f35b600060058014610180576040517f08c379a0000000000000000000000000000000000000000000000000000000008152600401610177906112e8565b60405180910390fd5b60016000836003600581106101be577f4e487b7100000000000000000000000000000000000000000000000000000000600052603260045260246000fd5b6020020151815260200190815260200160002060009054906101000a900460ff161561021f576040517f08c379a0000000000000000000000000000000000000000000000000000000008152600401610216906112c8565b60405180910390fd5b60018060008460036005811061025e577f4e487b7100000000000000000000000000000000000000000000000000000000600052603260045260246000fd5b6020020151815260200190815260200160002060006101000a81548160ff02191690831515021790555060016000836003600581106102c6577f4e487b7100000000000000000000000000000000000000000000000000000000600052603260045260246000fd5b6020020151815260200190815260200160002060009054906101000a900460ff16905092915050565b600080600360006002600086815260200190815260200160002060010154815260200190815260200160002060009054906101000a900460ff16600360006002600087815260200190815260200160002060020154815260200190815260200160002060009054906101000a900460ff1691509150915091565b6000601180146103ae576040517f08c379a00000000000000000000000000000000000000000000000000000000081526004016103a5906112e8565b60405180910390fd5b60036000836003601181106103ec577f4e487b7100000000000000000000000000000000000000000000000000000000600052603260045260246000fd5b6020020151815260200190815260200160002060009054906101000a900460ff161561044d576040517f08c379a000000000000000000000000000000000000000000000000000000000815260040161044490611268565b60405180910390fd5b600360008360046011811061048b577f4e487b7100000000000000000000000000000000000000000000000000000000600052603260045260246000fd5b6020020151815260200190815260200160002060009054906101000a900460ff16156104ec576040517f08c379a00000000000000000000000000000000000000000000000000000000081526004016104e390611288565b60405180910390fd5b600061057a8360036011811061052b577f4e487b7100000000000000000000000000000000000000000000000000000000600052603260045260246000fd5b602002015160001b8460046011811061056d577f4e487b7100000000000000000000000000000000000000000000000000000000600052603260045260246000fd5b602002015160001b610bc2565b9050336002600083815260200190815260200160002060000160006101000a81548173ffffffffffffffffffffffffffffffffffffffff021916908373ffffffffffffffffffffffffffffffffffffffff16021790555060016003600085600360118110610611577f4e487b7100000000000000000000000000000000000000000000000000000000600052603260045260246000fd5b6020020151815260200190815260200160002060006101000a81548160ff0219169083151502179055506001600360008560046011811061067b577f4e487b7100000000000000000000000000000000000000000000000000000000600052603260045260246000fd5b6020020151815260200190815260200160002060006101000a81548160ff021916908315150217905550826003601181106106df577f4e487b7100000000000000000000000000000000000000000000000000000000600052603260045260246000fd5b6020020151600260008381526020019081526020016000206001018190555082600460118110610738577f4e487b7100000000000000000000000000000000000000000000000000000000600052603260045260246000fd5b602002015160026000838152602001908152602001600020600201819055506000600667ffffffffffffffff81111561079a577f4e487b7100000000000000000000000000000000000000000000000000000000600052604160045260246000fd5b6040519080825280602002602001820160405280156107c85781602001602082028036833780820191505090505b50905060005b60068110156108795784600b826107e59190611435565b6011811061081c577f4e487b7100000000000000000000000000000000000000000000000000000000600052603260045260246000fd5b602002015182828151811061085a577f4e487b7100000000000000000000000000000000000000000000000000000000600052603260045260246000fd5b60200260200101818152505080806108719061150e565b9150506107ce565b507f33d5f61c636c478df8a94d3ddb47ea436d2ecacec313fb3052b3d1c8a455e32533856001601181106108d6577f4e487b7100000000000000000000000000000000000000000000000000000000600052603260045260246000fd5b602002015186600260118110610915577f4e487b7100000000000000000000000000000000000000000000000000000000600052603260045260246000fd5b60200201518460405161092b94939291906111b8565b60405180910390a160019250505092915050565b60008054906101000a900473ffffffffffffffffffffffffffffffffffffffff1681565b6000600680146109a8576040517f08c379a000000000000000000000000000000000000000000000000000000000815260040161099f90611308565b60405180910390fd5b60036000836001600681106109e6577f4e487b7100000000000000000000000000000000000000000000000000000000600052603260045260246000fd5b6020020151815260200190815260200160002060009054906101000a900460ff16610a46576040517f08c379a0000000000000000000000000000000000000000000000000000000008152600401610a3d90611248565b60405180910390fd5b6003600083600260068110610a84577f4e487b7100000000000000000000000000000000000000000000000000000000600052603260045260246000fd5b6020020151815260200190815260200160002060009054906101000a900460ff16610ae4576040517f08c379a0000000000000000000000000000000000000000000000000000000008152600401610adb906112a8565b60405180910390fd5b60006003600084600160068110610b24577f4e487b7100000000000000000000000000000000000000000000000000000000600052603260045260246000fd5b6020020151815260200190815260200160002060006101000a81548160ff02191690831515021790555060006003600084600260068110610b8e577f4e487b7100000000000000000000000000000000000000000000000000000000600052603260045260246000fd5b6020020151815260200190815260200160002060006101000a81548160ff0219169083151502179055506001905092915050565b60007f30644e72e131a029b85045b68181585d2833e84879b9709143e1f593f000000180838508818182098282848386858609090991507faed26d6a3f5e0ea662411ddfcde3527479de9cee7a56c656ff5f61df13a3940160005260005b605a811215610c595760206000208060005284878683870808935084848509925084848685888788090909935050600181019050610c20565b5082858308915082858488850808935050505092915050565b6000610c85610c808461134d565b611328565b90508082856020860282011115610c9b57600080fd5b60005b85811015610ccb5781610cb18882610ebb565b845260208401935060208301925050600181019050610c9e565b5050509392505050565b6000610ce8610ce384611373565b611328565b90508082856020860282011115610cfe57600080fd5b60005b85811015610d2e5781610d148882610ebb565b845260208401935060208301925050600181019050610d01565b5050509392505050565b6000610d4b610d4684611399565b611328565b90508082856020860282011115610d6157600080fd5b60005b85811015610d915781610d778882610ebb565b845260208401935060208301925050600181019050610d64565b5050509392505050565b6000610dae610da9846113bf565b611328565b90508083825260208201905082856020860282011115610dcd57600080fd5b60005b85811015610dfd5781610de38882610ebb565b845260208401935060208301925050600181019050610dd0565b5050509392505050565b600082601f830112610e1857600080fd5b6011610e25848285610c72565b91505092915050565b600082601f830112610e3f57600080fd5b6005610e4c848285610cd5565b91505092915050565b600082601f830112610e6657600080fd5b6006610e73848285610d38565b91505092915050565b600082601f830112610e8d57600080fd5b8135610e9d848260208601610d9b565b91505092915050565b600081359050610eb5816116e5565b92915050565b600081359050610eca816116fc565b92915050565b6000806102408385031215610ee457600080fd5b600083013567ffffffffffffffff811115610efe57600080fd5b610f0a85828601610e7c565b9250506020610f1b85828601610e07565b9150509250929050565b60008060c08385031215610f3857600080fd5b600083013567ffffffffffffffff811115610f5257600080fd5b610f5e85828601610e7c565b9250506020610f6f85828601610e2e565b9150509250929050565b60008060e08385031215610f8c57600080fd5b600083013567ffffffffffffffff811115610fa657600080fd5b610fb285828601610e7c565b9250506020610fc385828601610e55565b9150509250929050565b600060208284031215610fdf57600080fd5b6000610fed84828501610ea6565b91505092915050565b6000611002838361117f565b60208301905092915050565b6110178161148b565b82525050565b6000611028826113fb565b6110328185611413565b935061103d836113eb565b8060005b8381101561106e5781516110558882610ff6565b975061106083611406565b925050600181019050611041565b5085935050505092915050565b6110848161149d565b82525050565b6000611097600c83611424565b91506110a2826115c6565b602082019050919050565b60006110ba601483611424565b91506110c5826115ef565b602082019050919050565b60006110dd601483611424565b91506110e882611618565b602082019050919050565b6000611100600c83611424565b915061110b82611641565b602082019050919050565b6000611123601783611424565b915061112e8261166a565b602082019050919050565b6000611146601483611424565b915061115182611693565b602082019050919050565b6000611169601583611424565b9150611174826116bc565b602082019050919050565b611188816114d3565b82525050565b611197816114d3565b82525050565b60006020820190506111b2600083018461100e565b92915050565b60006080820190506111cd600083018761100e565b6111da602083018661118e565b6111e7604083018561118e565b81810360608301526111f9818461101d565b905095945050505050565b6000602082019050611219600083018461107b565b92915050565b6000604082019050611234600083018561107b565b611241602083018461107b565b9392505050565b600060208201905081810360008301526112618161108a565b9050919050565b60006020820190508181036000830152611281816110ad565b9050919050565b600060208201905081810360008301526112a1816110d0565b9050919050565b600060208201905081810360008301526112c1816110f3565b9050919050565b600060208201905081810360008301526112e181611116565b9050919050565b6000602082019050818103600083015261130181611139565b9050919050565b600060208201905081810360008301526113218161115c565b9050919050565b6000611332611343565b905061133e82826114dd565b919050565b6000604051905090565b600067ffffffffffffffff82111561136857611367611586565b5b602082029050919050565b600067ffffffffffffffff82111561138e5761138d611586565b5b602082029050919050565b600067ffffffffffffffff8211156113b4576113b3611586565b5b602082029050919050565b600067ffffffffffffffff8211156113da576113d9611586565b5b602082029050602081019050919050565b6000819050602082019050919050565b600081519050919050565b6000602082019050919050565b600082825260208201905092915050565b600082825260208201905092915050565b6000611440826114d3565b915061144b836114d3565b9250827fffffffffffffffffffffffffffffffffffffffffffffffffffffffffffffffff038211156114805761147f611557565b5b828201905092915050565b6000611496826114b3565b9050919050565b60008115159050919050565b6000819050919050565b600073ffffffffffffffffffffffffffffffffffffffff82169050919050565b6000819050919050565b6114e6826115b5565b810181811067ffffffffffffffff8211171561150557611504611586565b5b80604052505050565b6000611519826114d3565b91507fffffffffffffffffffffffffffffffffffffffffffffffffffffffffffffffff82141561154c5761154b611557565b5b600182019050919050565b7f4e487b7100000000000000000000000000000000000000000000000000000000600052601160045260246000fd5b7f4e487b7100000000000000000000000000000000000000000000000000000000600052604160045260246000fd5b6000601f19601f8301169050919050565b7f636d30206e6f2065786973740000000000000000000000000000000000000000600082015250565b7f616c726561647920657869737420636d5f6f776e000000000000000000000000600082015250565b7f616c726561647920657869737420636d5f64656c000000000000000000000000600082015250565b7f636d31206e6f2065786973740000000000000000000000000000000000000000600082015250565b7f616c7265616479207265676973746572656420685f6374000000000000000000600082015250565b7f696e76616c696420496e707574206c656e677468000000000000000000000000600082015250565b7f696e76616c696420496e70757473206c656e6774680000000000000000000000600082015250565b6116ee816114a9565b81146116f957600080fd5b50565b611705816114d3565b811461171057600080fd5b5056fea26469706673582212201d91c0baf2d253165c529cb4f2d9bba0007760c746705a2d4a8d5640eedf21e064736f6c63430008020033",
  "immutableReferences": {},
  "source": "// SPDX-License-Identifier: LGPL-3.0+\npragma solidity ^0.8.2;\n\nimport \"./Groth16AltBN128.sol\";\nimport \"./MiMC7.sol\";\n\ncontract Trade {\n\n    struct Order {\n        address orderer;\n        uint256 cm_pear;\n        uint256 cm_del;\n    }\n\n    event orderLog(address sender,uint256 c0,uint256 c1,uint256[] c2);\n\n    address public owner;\n\n    // h_ct list\n    mapping(uint256 => bool) private h_ct_list;\n    // order number -> order\n    mapping(bytes32 => Order) orderList;\n    // waitting for accept\n    mapping(uint256 => bool) waitTradeList;\n    \n    //  SNARK vk\n    uint256[] private registContent_vk;\n    uint256[] private orderContent_vk;\n    uint256[] private acceptOrder_vk;\n\n    // registData SNARK Proof verify input num\n    uint256 private constant REGISTDATA_NUM_INPUTS = 5;\n    // GenTrade SNARK Proof verify input num\n    uint256 private constant ORDER_NUM_INPUTS = 17;\n    // AcceptTrade SNARK Proof verify input num\n    uint256 private constant ACCEPT_NUM_INPUTS = 6;\n\n    constructor(\n//        uint256[] memory _registContent_vk,\n//        uint256[] memory _orderContent_vk,\n//        uint256[] memory _acceptOrder_vk\n    ){\n        owner = msg.sender;\n        //registContent_vk = _registContent_vk;\n        //orderContent_vk  = _orderContent_vk;\n        //acceptOrder_vk = _acceptOrder_vk;\n    }\n\n    //function registContent( uint256[REGISTDATA_NUM_INPUTS] memory inputs)\n    function registContent( uint256[] memory proof, uint256[REGISTDATA_NUM_INPUTS] memory inputs)  \n        public  \n        returns(bool)\n    {   \n        // check input length\n        require( inputs.length == REGISTDATA_NUM_INPUTS, \"invalid Input length\");\n        \n        // check hct\n        require( !h_ct_list[inputs[3]], \"already registered h_ct\");\n\n        // uint256[] memory input_values = new uint256[](REGISTDATA_NUM_INPUTS);\n        // for (uint256 i = 0 ; i < REGISTDATA_NUM_INPUTS; i++) {\n        //     input_values[i] = inputs[i];\n        // }\n        // require( Groth16AltBN128._verify(registContent_vk, proof, input_values), \"invalid proof\");\n\n        h_ct_list[inputs[3]] = true;\n        return h_ct_list[inputs[3]];\n    }\n    \n    // function orderContent( uint256[ORDER_NUM_INPUTS] memory inputs)\n    function orderContent( uint256[] memory proof, uint256[ORDER_NUM_INPUTS] memory inputs)\n        public\n        returns(bool)\n    {\n\n        require( inputs.length == ORDER_NUM_INPUTS, \"invalid Input length\");\n\n        require( !waitTradeList[inputs[3]], \"already exist cm_own\");\n        require( !waitTradeList[inputs[4]], \"already exist cm_del\");\n\n        // uint256[] memory input_values = new uint256[](ORDER_NUM_INPUTS);\n        // for (uint256 i = 0 ; i < ORDER_NUM_INPUTS; i++) {\n        //     input_values[i] = inputs[i];\n        // }\n        // require( Groth16AltBN128._verify(orderContent_vk, proof, input_values), \"invalid proof\");\n        \n        // order number\n        bytes32 orderNumber = MiMC7._hash(bytes32(inputs[3]), bytes32(inputs[4]));\n        orderList[orderNumber].orderer = msg.sender;\n\n        // insert cm to waitTradeList\n        waitTradeList[inputs[3]] = true;\n        waitTradeList[inputs[4]] = true;\n        orderList[orderNumber].cm_pear = inputs[3];\n        orderList[orderNumber].cm_del = inputs[4];\n        \n        // emit log\n        uint256[] memory c2 = new uint256[](6);\n        for (uint256 i=0; i<6; i++){\n            c2[i] = inputs[i+11];\n        } \n\n        emit orderLog(msg.sender,inputs[1],inputs[2],c2);\n\n        return true;\n    }\n\n    // function acceptOrder(uint256[ACCEPT_NUM_INPUTS] memory inputs)\n    function acceptOrder(uint256[] memory proof,uint256[ACCEPT_NUM_INPUTS] memory inputs)\n        public\n        returns(bool)\n    {\n        require(inputs.length == ACCEPT_NUM_INPUTS, \"invalid Inputs length\");\n\n        // check cm\n        require(waitTradeList[inputs[1]], \"cm0 no exist\");\n        require(waitTradeList[inputs[2]], \"cm1 no exist\");\n\n        // uint256[] memory input_values = new uint256[](ACCEPT_NUM_INPUTS);\n        // for (uint256 i = 0 ; i < ACCEPT_NUM_INPUTS; i++) {\n        //     input_values[i] = inputs[i];\n        // }\n        // require( Groth16AltBN128._verify(acceptOrder_vk, proof, input_values), \"invalid proof\");\n\n        waitTradeList[inputs[1]] = false;\n        waitTradeList[inputs[2]] = false;\n\n        return true;\n    }\n\n    function checkCmValidation(bytes32 orderNumber)public view returns (bool,bool){\n        return (waitTradeList[orderList[orderNumber].cm_pear], waitTradeList[orderList[orderNumber].cm_del]);\n    }\n}",
  "sourcePath": "/Users/sjw/project/contentTrade/contract/contracts/Trade.sol",
  "compiler": {
    "name": "solc",
    "version": "0.8.2+commit.661d1103.Emscripten.clang"
  },
  "schemaVersion": "3.4.16",
  "updatedAt": "2025-06-25T13:47:22.389Z",
  "devdoc": {
    "kind": "dev",
    "methods": {},
    "version": 1
  },
  "userdoc": {
    "kind": "user",
    "methods": {},
    "version": 1
  }
}